{
  "_format": "hh-sol-artifact-1",
  "contractName": "ERC2612",
  "sourceName": "contracts/ERC2612.sol",
  "abi": [
    {
      "inputs": [],
      "stateMutability": "nonpayable",
      "type": "constructor"
    },
    {
      "anonymous": false,
      "inputs": [
        {
          "indexed": true,
          "internalType": "address",
          "name": "owner",
          "type": "address"
        },
        {
          "indexed": true,
          "internalType": "address",
          "name": "spender",
          "type": "address"
        },
        {
          "indexed": false,
          "internalType": "uint256",
          "name": "value",
          "type": "uint256"
        }
      ],
      "name": "Approval",
      "type": "event"
    },
    {
      "anonymous": false,
      "inputs": [
        {
          "indexed": true,
          "internalType": "address",
          "name": "from",
          "type": "address"
        },
        {
          "indexed": true,
          "internalType": "address",
          "name": "to",
          "type": "address"
        },
        {
          "indexed": false,
          "internalType": "uint256",
          "name": "value",
          "type": "uint256"
        }
      ],
      "name": "Transfer",
      "type": "event"
    },
    {
      "inputs": [],
      "name": "DOMAIN_SEPARATOR",
      "outputs": [
        {
          "internalType": "bytes32",
          "name": "",
          "type": "bytes32"
        }
      ],
      "stateMutability": "view",
      "type": "function"
    },
    {
      "inputs": [
        {
          "internalType": "address",
          "name": "owner",
          "type": "address"
        },
        {
          "internalType": "address",
          "name": "spender",
          "type": "address"
        }
      ],
      "name": "allowance",
      "outputs": [
        {
          "internalType": "uint256",
          "name": "",
          "type": "uint256"
        }
      ],
      "stateMutability": "view",
      "type": "function"
    },
    {
      "inputs": [
        {
          "internalType": "address",
          "name": "spender",
          "type": "address"
        },
        {
          "internalType": "uint256",
          "name": "amount",
          "type": "uint256"
        }
      ],
      "name": "approve",
      "outputs": [
        {
          "internalType": "bool",
          "name": "",
          "type": "bool"
        }
      ],
      "stateMutability": "nonpayable",
      "type": "function"
    },
    {
      "inputs": [
        {
          "internalType": "address",
          "name": "account",
          "type": "address"
        }
      ],
      "name": "balanceOf",
      "outputs": [
        {
          "internalType": "uint256",
          "name": "",
          "type": "uint256"
        }
      ],
      "stateMutability": "view",
      "type": "function"
    },
    {
      "inputs": [],
      "name": "decimals",
      "outputs": [
        {
          "internalType": "uint8",
          "name": "",
          "type": "uint8"
        }
      ],
      "stateMutability": "view",
      "type": "function"
    },
    {
      "inputs": [
        {
          "internalType": "address",
          "name": "spender",
          "type": "address"
        },
        {
          "internalType": "uint256",
          "name": "subtractedValue",
          "type": "uint256"
        }
      ],
      "name": "decreaseAllowance",
      "outputs": [
        {
          "internalType": "bool",
          "name": "",
          "type": "bool"
        }
      ],
      "stateMutability": "nonpayable",
      "type": "function"
    },
    {
      "inputs": [
        {
          "internalType": "address",
          "name": "spender",
          "type": "address"
        },
        {
          "internalType": "uint256",
          "name": "addedValue",
          "type": "uint256"
        }
      ],
      "name": "increaseAllowance",
      "outputs": [
        {
          "internalType": "bool",
          "name": "",
          "type": "bool"
        }
      ],
      "stateMutability": "nonpayable",
      "type": "function"
    },
    {
      "inputs": [],
      "name": "name",
      "outputs": [
        {
          "internalType": "string",
          "name": "",
          "type": "string"
        }
      ],
      "stateMutability": "view",
      "type": "function"
    },
    {
      "inputs": [
        {
          "internalType": "address",
          "name": "owner",
          "type": "address"
        }
      ],
      "name": "nonces",
      "outputs": [
        {
          "internalType": "uint256",
          "name": "",
          "type": "uint256"
        }
      ],
      "stateMutability": "view",
      "type": "function"
    },
    {
      "inputs": [
        {
          "internalType": "address",
          "name": "owner",
          "type": "address"
        },
        {
          "internalType": "address",
          "name": "spender",
          "type": "address"
        },
        {
          "internalType": "uint256",
          "name": "value",
          "type": "uint256"
        },
        {
          "internalType": "uint256",
          "name": "deadline",
          "type": "uint256"
        },
        {
          "internalType": "uint8",
          "name": "v",
          "type": "uint8"
        },
        {
          "internalType": "bytes32",
          "name": "r",
          "type": "bytes32"
        },
        {
          "internalType": "bytes32",
          "name": "s",
          "type": "bytes32"
        }
      ],
      "name": "permit",
      "outputs": [],
      "stateMutability": "nonpayable",
      "type": "function"
    },
    {
      "inputs": [],
      "name": "symbol",
      "outputs": [
        {
          "internalType": "string",
          "name": "",
          "type": "string"
        }
      ],
      "stateMutability": "view",
      "type": "function"
    },
    {
      "inputs": [],
      "name": "totalSupply",
      "outputs": [
        {
          "internalType": "uint256",
          "name": "",
          "type": "uint256"
        }
      ],
      "stateMutability": "view",
      "type": "function"
    },
    {
      "inputs": [
        {
          "internalType": "address",
          "name": "to",
          "type": "address"
        },
        {
          "internalType": "uint256",
          "name": "amount",
          "type": "uint256"
        }
      ],
      "name": "transfer",
      "outputs": [
        {
          "internalType": "bool",
          "name": "",
          "type": "bool"
        }
      ],
      "stateMutability": "nonpayable",
      "type": "function"
    },
    {
      "inputs": [
        {
          "internalType": "address",
          "name": "from",
          "type": "address"
        },
        {
          "internalType": "address",
          "name": "to",
          "type": "address"
        },
        {
          "internalType": "uint256",
          "name": "amount",
          "type": "uint256"
        }
      ],
      "name": "transferFrom",
      "outputs": [
        {
          "internalType": "bool",
          "name": "",
          "type": "bool"
        }
      ],
      "stateMutability": "nonpayable",
      "type": "function"
    }
  ],
  "bytecode": "0x6101606040527f6e71edae12b1b97f4d1f60370fef10105fa2faae0126114a169c64845d6126c9610140908152503480156200003a57600080fd5b506040518060400160405280600781526020017f4552433236313200000000000000000000000000000000000000000000000000815250806040518060400160405280600181526020017f31000000000000000000000000000000000000000000000000000000000000008152506040518060400160405280600781526020017f45524332363132000000000000000000000000000000000000000000000000008152506040518060400160405280600781526020017f455243323631320000000000000000000000000000000000000000000000000081525081600390805190602001906200012c929190620003de565b50806004908051906020019062000145929190620003de565b50505060008280519060200120905060008280519060200120905060007f8b73c3c69bb8fe3d512ecc4cf759cc79239f7b179b0ffacaa9a75d522b39400f90508260e081815250508161010081815250504660a08181525050620001b18184846200021f60201b60201c565b608081815250503073ffffffffffffffffffffffffffffffffffffffff1660c08173ffffffffffffffffffffffffffffffffffffffff1660601b815250508061012081815250505050505050506200021933688d98c82107e85000006200025b60201b60201c565b620006f7565b600083838346306040516020016200023c959493929190620004e8565b6040516020818303038152906040528051906020012090509392505050565b600073ffffffffffffffffffffffffffffffffffffffff168273ffffffffffffffffffffffffffffffffffffffff161415620002ce576040517f08c379a0000000000000000000000000000000000000000000000000000000008152600401620002c59062000545565b60405180910390fd5b620002e260008383620003d460201b60201c565b8060026000828254620002f6919062000595565b92505081905550806000808473ffffffffffffffffffffffffffffffffffffffff1673ffffffffffffffffffffffffffffffffffffffff16815260200190815260200160002060008282546200034d919062000595565b925050819055508173ffffffffffffffffffffffffffffffffffffffff16600073ffffffffffffffffffffffffffffffffffffffff167fddf252ad1be2c89b69c2b068fc378daa952ba7f163c4a11628f55a4df523b3ef83604051620003b4919062000567565b60405180910390a3620003d060008383620003d960201b60201c565b5050565b505050565b505050565b828054620003ec906200063a565b90600052602060002090601f0160209004810192826200041057600085556200045c565b82601f106200042b57805160ff19168380011785556200045c565b828001600101855582156200045c579182015b828111156200045b5782518255916020019190600101906200043e565b5b5090506200046b91906200046f565b5090565b5b808211156200048a57600081600090555060010162000470565b5090565b6200049981620005f2565b82525050565b620004aa8162000606565b82525050565b6000620004bf601f8362000584565b9150620004cc82620006ce565b602082019050919050565b620004e28162000630565b82525050565b600060a082019050620004ff60008301886200049f565b6200050e60208301876200049f565b6200051d60408301866200049f565b6200052c6060830185620004d7565b6200053b60808301846200048e565b9695505050505050565b600060208201905081810360008301526200056081620004b0565b9050919050565b60006020820190506200057e6000830184620004d7565b92915050565b600082825260208201905092915050565b6000620005a28262000630565b9150620005af8362000630565b9250827fffffffffffffffffffffffffffffffffffffffffffffffffffffffffffffffff03821115620005e757620005e662000670565b5b828201905092915050565b6000620005ff8262000610565b9050919050565b6000819050919050565b600073ffffffffffffffffffffffffffffffffffffffff82169050919050565b6000819050919050565b600060028204905060018216806200065357607f821691505b602082108114156200066a57620006696200069f565b5b50919050565b7f4e487b7100000000000000000000000000000000000000000000000000000000600052601160045260246000fd5b7f4e487b7100000000000000000000000000000000000000000000000000000000600052602260045260246000fd5b7f45524332303a206d696e7420746f20746865207a65726f206164647265737300600082015250565b60805160a05160c05160601c60e0516101005161012051610140516121e662000755600039600061074f01526000610e5f01526000610ea101526000610e8001526000610db501526000610e0b01526000610e3401526121e66000f3fe608060405234801561001057600080fd5b50600436106100ea5760003560e01c806370a082311161008c578063a457c2d711610066578063a457c2d714610275578063a9059cbb146102a5578063d505accf146102d5578063dd62ed3e146102f1576100ea565b806370a08231146101f75780637ecebe001461022757806395d89b4114610257576100ea565b806323b872dd116100c857806323b872dd1461015b578063313ce5671461018b5780633644e515146101a957806339509351146101c7576100ea565b806306fdde03146100ef578063095ea7b31461010d57806318160ddd1461013d575b600080fd5b6100f7610321565b6040516101049190611a34565b60405180910390f35b6101276004803603810190610122919061160d565b6103b3565b6040516101349190611905565b60405180910390f35b6101456103d6565b6040516101529190611bf6565b60405180910390f35b61017560048036038101906101709190611520565b6103e0565b6040516101829190611905565b60405180910390f35b61019361040f565b6040516101a09190611c11565b60405180910390f35b6101b1610418565b6040516101be9190611920565b60405180910390f35b6101e160048036038101906101dc919061160d565b610427565b6040516101ee9190611905565b60405180910390f35b610211600480360381019061020c91906114bb565b6104d1565b60405161021e9190611bf6565b60405180910390f35b610241600480360381019061023c91906114bb565b610519565b60405161024e9190611bf6565b60405180910390f35b61025f610569565b60405161026c9190611a34565b60405180910390f35b61028f600480360381019061028a919061160d565b6105fb565b60405161029c9190611905565b60405180910390f35b6102bf60048036038101906102ba919061160d565b6106e5565b6040516102cc9190611905565b60405180910390f35b6102ef60048036038101906102ea919061156f565b610708565b005b61030b600480360381019061030691906114e4565b61084a565b6040516103189190611bf6565b60405180910390f35b60606003805461033090611d3b565b80601f016020809104026020016040519081016040528092919081815260200182805461035c90611d3b565b80156103a95780601f1061037e576101008083540402835291602001916103a9565b820191906000526020600020905b81548152906001019060200180831161038c57829003601f168201915b5050505050905090565b6000806103be6108d1565b90506103cb8185856108d9565b600191505092915050565b6000600254905090565b6000806103eb6108d1565b90506103f8858285610aa4565b610403858585610b30565b60019150509392505050565b60006012905090565b6000610422610db1565b905090565b6000806104326108d1565b90506104c6818585600160008673ffffffffffffffffffffffffffffffffffffffff1673ffffffffffffffffffffffffffffffffffffffff16815260200190815260200160002060008973ffffffffffffffffffffffffffffffffffffffff1673ffffffffffffffffffffffffffffffffffffffff168152602001908152602001600020546104c19190611c53565b6108d9565b600191505092915050565b60008060008373ffffffffffffffffffffffffffffffffffffffff1673ffffffffffffffffffffffffffffffffffffffff168152602001908152602001600020549050919050565b6000610562600560008473ffffffffffffffffffffffffffffffffffffffff1673ffffffffffffffffffffffffffffffffffffffff168152602001908152602001600020610ecb565b9050919050565b60606004805461057890611d3b565b80601f01602080910402602001604051908101604052809291908181526020018280546105a490611d3b565b80156105f15780601f106105c6576101008083540402835291602001916105f1565b820191906000526020600020905b8154815290600101906020018083116105d457829003601f168201915b5050505050905090565b6000806106066108d1565b90506000600160008373ffffffffffffffffffffffffffffffffffffffff1673ffffffffffffffffffffffffffffffffffffffff16815260200190815260200160002060008673ffffffffffffffffffffffffffffffffffffffff1673ffffffffffffffffffffffffffffffffffffffff168152602001908152602001600020549050838110156106cc576040517f08c379a00000000000000000000000000000000000000000000000000000000081526004016106c390611bd6565b60405180910390fd5b6106d982868684036108d9565b60019250505092915050565b6000806106f06108d1565b90506106fd818585610b30565b600191505092915050565b8342111561074b576040517f08c379a000000000000000000000000000000000000000000000000000000000815260040161074290611af6565b60405180910390fd5b60007f000000000000000000000000000000000000000000000000000000000000000088888861077a8c610ed9565b896040516020016107909695949392919061193b565b60405160208183030381529060405280519060200120905060006107b382610f37565b905060006107c382878787610f51565b90508973ffffffffffffffffffffffffffffffffffffffff168173ffffffffffffffffffffffffffffffffffffffff1614610833576040517f08c379a000000000000000000000000000000000000000000000000000000000815260040161082a90611b76565b60405180910390fd5b61083e8a8a8a6108d9565b50505050505050505050565b6000600160008473ffffffffffffffffffffffffffffffffffffffff1673ffffffffffffffffffffffffffffffffffffffff16815260200190815260200160002060008373ffffffffffffffffffffffffffffffffffffffff1673ffffffffffffffffffffffffffffffffffffffff16815260200190815260200160002054905092915050565b600033905090565b600073ffffffffffffffffffffffffffffffffffffffff168373ffffffffffffffffffffffffffffffffffffffff161415610949576040517f08c379a000000000000000000000000000000000000000000000000000000000815260040161094090611bb6565b60405180910390fd5b600073ffffffffffffffffffffffffffffffffffffffff168273ffffffffffffffffffffffffffffffffffffffff1614156109b9576040517f08c379a00000000000000000000000000000000000000000000000000000000081526004016109b090611ab6565b60405180910390fd5b80600160008573ffffffffffffffffffffffffffffffffffffffff1673ffffffffffffffffffffffffffffffffffffffff16815260200190815260200160002060008473ffffffffffffffffffffffffffffffffffffffff1673ffffffffffffffffffffffffffffffffffffffff168152602001908152602001600020819055508173ffffffffffffffffffffffffffffffffffffffff168373ffffffffffffffffffffffffffffffffffffffff167f8c5be1e5ebec7d5bd14f71427d1e84f3dd0314c0f7b2291e5b200ac8c7c3b92583604051610a979190611bf6565b60405180910390a3505050565b6000610ab0848461084a565b90507fffffffffffffffffffffffffffffffffffffffffffffffffffffffffffffffff8114610b2a5781811015610b1c576040517f08c379a0000000000000000000000000000000000000000000000000000000008152600401610b1390611ad6565b60405180910390fd5b610b2984848484036108d9565b5b50505050565b600073ffffffffffffffffffffffffffffffffffffffff168373ffffffffffffffffffffffffffffffffffffffff161415610ba0576040517f08c379a0000000000000000000000000000000000000000000000000000000008152600401610b9790611b96565b60405180910390fd5b600073ffffffffffffffffffffffffffffffffffffffff168273ffffffffffffffffffffffffffffffffffffffff161415610c10576040517f08c379a0000000000000000000000000000000000000000000000000000000008152600401610c0790611a76565b60405180910390fd5b610c1b838383610f7c565b60008060008573ffffffffffffffffffffffffffffffffffffffff1673ffffffffffffffffffffffffffffffffffffffff16815260200190815260200160002054905081811015610ca1576040517f08c379a0000000000000000000000000000000000000000000000000000000008152600401610c9890611b16565b60405180910390fd5b8181036000808673ffffffffffffffffffffffffffffffffffffffff1673ffffffffffffffffffffffffffffffffffffffff16815260200190815260200160002081905550816000808573ffffffffffffffffffffffffffffffffffffffff1673ffffffffffffffffffffffffffffffffffffffff1681526020019081526020016000206000828254610d349190611c53565b925050819055508273ffffffffffffffffffffffffffffffffffffffff168473ffffffffffffffffffffffffffffffffffffffff167fddf252ad1be2c89b69c2b068fc378daa952ba7f163c4a11628f55a4df523b3ef84604051610d989190611bf6565b60405180910390a3610dab848484610f81565b50505050565b60007f000000000000000000000000000000000000000000000000000000000000000073ffffffffffffffffffffffffffffffffffffffff163073ffffffffffffffffffffffffffffffffffffffff16148015610e2d57507f000000000000000000000000000000000000000000000000000000000000000046145b15610e5a577f00000000000000000000000000000000000000000000000000000000000000009050610ec8565b610ec57f00000000000000000000000000000000000000000000000000000000000000007f00000000000000000000000000000000000000000000000000000000000000007f0000000000000000000000000000000000000000000000000000000000000000610f86565b90505b90565b600081600001549050919050565b600080600560008473ffffffffffffffffffffffffffffffffffffffff1673ffffffffffffffffffffffffffffffffffffffff1681526020019081526020016000209050610f2681610ecb565b9150610f3181610fc0565b50919050565b6000610f4a610f44610db1565b83610fd6565b9050919050565b6000806000610f6287878787611009565b91509150610f6f81611116565b8192505050949350505050565b505050565b505050565b60008383834630604051602001610fa195949392919061199c565b6040516020818303038152906040528051906020012090509392505050565b6001816000016000828254019250508190555050565b60008282604051602001610feb9291906118ce565b60405160208183030381529060405280519060200120905092915050565b6000807f7fffffffffffffffffffffffffffffff5d576e7357a4501ddfe92f46681b20a08360001c111561104457600060039150915061110d565b601b8560ff161415801561105c5750601c8560ff1614155b1561106e57600060049150915061110d565b60006001878787876040516000815260200160405260405161109394939291906119ef565b6020604051602081039080840390855afa1580156110b5573d6000803e3d6000fd5b505050602060405103519050600073ffffffffffffffffffffffffffffffffffffffff168173ffffffffffffffffffffffffffffffffffffffff1614156111045760006001925092505061110d565b80600092509250505b94509492505050565b60006004811115611150577f4e487b7100000000000000000000000000000000000000000000000000000000600052602160045260246000fd5b816004811115611189577f4e487b7100000000000000000000000000000000000000000000000000000000600052602160045260246000fd5b141561119457611464565b600160048111156111ce577f4e487b7100000000000000000000000000000000000000000000000000000000600052602160045260246000fd5b816004811115611207577f4e487b7100000000000000000000000000000000000000000000000000000000600052602160045260246000fd5b1415611248576040517f08c379a000000000000000000000000000000000000000000000000000000000815260040161123f90611a56565b60405180910390fd5b60026004811115611282577f4e487b7100000000000000000000000000000000000000000000000000000000600052602160045260246000fd5b8160048111156112bb577f4e487b7100000000000000000000000000000000000000000000000000000000600052602160045260246000fd5b14156112fc576040517f08c379a00000000000000000000000000000000000000000000000000000000081526004016112f390611a96565b60405180910390fd5b60036004811115611336577f4e487b7100000000000000000000000000000000000000000000000000000000600052602160045260246000fd5b81600481111561136f577f4e487b7100000000000000000000000000000000000000000000000000000000600052602160045260246000fd5b14156113b0576040517f08c379a00000000000000000000000000000000000000000000000000000000081526004016113a790611b36565b60405180910390fd5b6004808111156113e9577f4e487b7100000000000000000000000000000000000000000000000000000000600052602160045260246000fd5b816004811115611422577f4e487b7100000000000000000000000000000000000000000000000000000000600052602160045260246000fd5b1415611463576040517f08c379a000000000000000000000000000000000000000000000000000000000815260040161145a90611b56565b60405180910390fd5b5b50565b60008135905061147681612154565b92915050565b60008135905061148b8161216b565b92915050565b6000813590506114a081612182565b92915050565b6000813590506114b581612199565b92915050565b6000602082840312156114cd57600080fd5b60006114db84828501611467565b91505092915050565b600080604083850312156114f757600080fd5b600061150585828601611467565b925050602061151685828601611467565b9150509250929050565b60008060006060848603121561153557600080fd5b600061154386828701611467565b935050602061155486828701611467565b925050604061156586828701611491565b9150509250925092565b600080600080600080600060e0888a03121561158a57600080fd5b60006115988a828b01611467565b97505060206115a98a828b01611467565b96505060406115ba8a828b01611491565b95505060606115cb8a828b01611491565b94505060806115dc8a828b016114a6565b93505060a06115ed8a828b0161147c565b92505060c06115fe8a828b0161147c565b91505092959891949750929550565b6000806040838503121561162057600080fd5b600061162e85828601611467565b925050602061163f85828601611491565b9150509250929050565b61165281611ca9565b82525050565b61166181611cbb565b82525050565b61167081611cc7565b82525050565b61168761168282611cc7565b611d6d565b82525050565b600061169882611c2c565b6116a28185611c37565b93506116b2818560208601611d08565b6116bb81611dd5565b840191505092915050565b60006116d3601883611c37565b91506116de82611de6565b602082019050919050565b60006116f6602383611c37565b915061170182611e0f565b604082019050919050565b6000611719601f83611c37565b915061172482611e5e565b602082019050919050565b600061173c602283611c37565b915061174782611e87565b604082019050919050565b600061175f600283611c48565b915061176a82611ed6565b600282019050919050565b6000611782601d83611c37565b915061178d82611eff565b602082019050919050565b60006117a5601d83611c37565b91506117b082611f28565b602082019050919050565b60006117c8602683611c37565b91506117d382611f51565b604082019050919050565b60006117eb602283611c37565b91506117f682611fa0565b604082019050919050565b600061180e602283611c37565b915061181982611fef565b604082019050919050565b6000611831601e83611c37565b915061183c8261203e565b602082019050919050565b6000611854602583611c37565b915061185f82612067565b604082019050919050565b6000611877602483611c37565b9150611882826120b6565b604082019050919050565b600061189a602583611c37565b91506118a582612105565b604082019050919050565b6118b981611cf1565b82525050565b6118c881611cfb565b82525050565b60006118d982611752565b91506118e58285611676565b6020820191506118f58284611676565b6020820191508190509392505050565b600060208201905061191a6000830184611658565b92915050565b60006020820190506119356000830184611667565b92915050565b600060c0820190506119506000830189611667565b61195d6020830188611649565b61196a6040830187611649565b61197760608301866118b0565b61198460808301856118b0565b61199160a08301846118b0565b979650505050505050565b600060a0820190506119b16000830188611667565b6119be6020830187611667565b6119cb6040830186611667565b6119d860608301856118b0565b6119e56080830184611649565b9695505050505050565b6000608082019050611a046000830187611667565b611a1160208301866118bf565b611a1e6040830185611667565b611a2b6060830184611667565b95945050505050565b60006020820190508181036000830152611a4e818461168d565b905092915050565b60006020820190508181036000830152611a6f816116c6565b9050919050565b60006020820190508181036000830152611a8f816116e9565b9050919050565b60006020820190508181036000830152611aaf8161170c565b9050919050565b60006020820190508181036000830152611acf8161172f565b9050919050565b60006020820190508181036000830152611aef81611775565b9050919050565b60006020820190508181036000830152611b0f81611798565b9050919050565b60006020820190508181036000830152611b2f816117bb565b9050919050565b60006020820190508181036000830152611b4f816117de565b9050919050565b60006020820190508181036000830152611b6f81611801565b9050919050565b60006020820190508181036000830152611b8f81611824565b9050919050565b60006020820190508181036000830152611baf81611847565b9050919050565b60006020820190508181036000830152611bcf8161186a565b9050919050565b60006020820190508181036000830152611bef8161188d565b9050919050565b6000602082019050611c0b60008301846118b0565b92915050565b6000602082019050611c2660008301846118bf565b92915050565b600081519050919050565b600082825260208201905092915050565b600081905092915050565b6000611c5e82611cf1565b9150611c6983611cf1565b9250827fffffffffffffffffffffffffffffffffffffffffffffffffffffffffffffffff03821115611c9e57611c9d611d77565b5b828201905092915050565b6000611cb482611cd1565b9050919050565b60008115159050919050565b6000819050919050565b600073ffffffffffffffffffffffffffffffffffffffff82169050919050565b6000819050919050565b600060ff82169050919050565b60005b83811015611d26578082015181840152602081019050611d0b565b83811115611d35576000848401525b50505050565b60006002820490506001821680611d5357607f821691505b60208210811415611d6757611d66611da6565b5b50919050565b6000819050919050565b7f4e487b7100000000000000000000000000000000000000000000000000000000600052601160045260246000fd5b7f4e487b7100000000000000000000000000000000000000000000000000000000600052602260045260246000fd5b6000601f19601f8301169050919050565b7f45434453413a20696e76616c6964207369676e61747572650000000000000000600082015250565b7f45524332303a207472616e7366657220746f20746865207a65726f206164647260008201527f6573730000000000000000000000000000000000000000000000000000000000602082015250565b7f45434453413a20696e76616c6964207369676e6174757265206c656e67746800600082015250565b7f45524332303a20617070726f766520746f20746865207a65726f20616464726560008201527f7373000000000000000000000000000000000000000000000000000000000000602082015250565b7f1901000000000000000000000000000000000000000000000000000000000000600082015250565b7f45524332303a20696e73756666696369656e7420616c6c6f77616e6365000000600082015250565b7f45524332305065726d69743a206578706972656420646561646c696e65000000600082015250565b7f45524332303a207472616e7366657220616d6f756e742065786365656473206260008201527f616c616e63650000000000000000000000000000000000000000000000000000602082015250565b7f45434453413a20696e76616c6964207369676e6174757265202773272076616c60008201527f7565000000000000000000000000000000000000000000000000000000000000602082015250565b7f45434453413a20696e76616c6964207369676e6174757265202776272076616c60008201527f7565000000000000000000000000000000000000000000000000000000000000602082015250565b7f45524332305065726d69743a20696e76616c6964207369676e61747572650000600082015250565b7f45524332303a207472616e736665722066726f6d20746865207a65726f20616460008201527f6472657373000000000000000000000000000000000000000000000000000000602082015250565b7f45524332303a20617070726f76652066726f6d20746865207a65726f2061646460008201527f7265737300000000000000000000000000000000000000000000000000000000602082015250565b7f45524332303a2064656372656173656420616c6c6f77616e63652062656c6f7760008201527f207a65726f000000000000000000000000000000000000000000000000000000602082015250565b61215d81611ca9565b811461216857600080fd5b50565b61217481611cc7565b811461217f57600080fd5b50565b61218b81611cf1565b811461219657600080fd5b50565b6121a281611cfb565b81146121ad57600080fd5b5056fea2646970667358221220109b8053a958ddc87cebf4a6b233ba4948512c2f72e0b08490ee11cf2b1cac1a64736f6c63430008040033",
  "linkReferences": {},
  "deployedLinkReferences": {}
}