{
  "contractName": "Counter",
  "abi": [
    {
      "inputs": [],
      "stateMutability": "nonpayable",
      "type": "constructor"
    },
    {
      "inputs": [],
      "name": "counter",
      "outputs": [
        {
          "internalType": "uint256",
          "name": "",
          "type": "uint256"
        }
      ],
      "stateMutability": "view",
      "type": "function",
      "constant": true
    },
    {
      "inputs": [],
      "name": "count",
      "outputs": [],
      "stateMutability": "nonpayable",
      "type": "function"
    },
    {
      "inputs": [
        {
          "internalType": "uint256",
          "name": "x",
          "type": "uint256"
        }
      ],
      "name": "set",
      "outputs": [],
      "stateMutability": "nonpayable",
      "type": "function"
    }
  ],
  "bytecode": "0x608060405234801561001057600080fd5b5060008081905550610256806100276000396000f3fe608060405234801561001057600080fd5b50600436106100415760003560e01c806306661abd1461004657806360fe47b11461005057806361bc221a1461006c575b600080fd5b61004e61008a565b005b61006a600480360381019061006591906100fb565b6100a3565b005b6100746100ba565b6040516100819190610137565b60405180910390f35b60008081548092919061009c90610181565b9190505550565b806000546100b191906101ca565b60008190555050565b60005481565b600080fd5b6000819050919050565b6100d8816100c5565b81146100e357600080fd5b50565b6000813590506100f5816100cf565b92915050565b600060208284031215610111576101106100c0565b5b600061011f848285016100e6565b91505092915050565b610131816100c5565b82525050565b600060208201905061014c6000830184610128565b92915050565b7f4e487b7100000000000000000000000000000000000000000000000000000000600052601160045260246000fd5b600061018c826100c5565b91507fffffffffffffffffffffffffffffffffffffffffffffffffffffffffffffffff8214156101bf576101be610152565b5b600182019050919050565b60006101d5826100c5565b91506101e0836100c5565b9250827fffffffffffffffffffffffffffffffffffffffffffffffffffffffffffffffff0382111561021557610214610152565b5b82820190509291505056fea2646970667358221220f9f6df7b42e687954ee9717402edbc2a4b75d5365890c00b474bc15acadf8f5264736f6c634300080c0033",
  "immutableReferences": {},
  "source": "// SPDX-License-Identifier: GPL-3.0\npragma solidity ^0.8.0;\n\ncontract Counter {\n    uint public counter;\n    constructor() {\n        counter = 0;\n    }\n    function count() public {\n        counter++;\n    }\n    function set(uint x) public {\n        counter = counter + x;\n    }\n}",
  "sourcePath": "/Users/charlielee/GitProjects/learndapp/w1-2/counter/contracts/Counter.sol",
  "compiler": {
    "name": "solc",
    "version": "0.8.12+commit.f00d7308.Emscripten.clang"
  },
  "schemaVersion": "3.4.5",
  "updatedAt": "2022-02-26T16:36:24.818Z",
  "networkType": "ethereum",
  "devdoc": {
    "kind": "dev",
    "methods": {},
    "version": 1
  },
  "userdoc": {
    "kind": "user",
    "methods": {},
    "version": 1
  }
}