{
  "_format": "hh-sol-artifact-1",
  "contractName": "Bank",
  "sourceName": "contracts/Bank.sol",
  "abi": [
    {
      "inputs": [
        {
          "internalType": "address",
          "name": "_token",
          "type": "address"
        }
      ],
      "stateMutability": "nonpayable",
      "type": "constructor"
    },
    {
      "inputs": [
        {
          "internalType": "address",
          "name": "user",
          "type": "address"
        },
        {
          "internalType": "uint256",
          "name": "amount",
          "type": "uint256"
        }
      ],
      "name": "deposit",
      "outputs": [],
      "stateMutability": "nonpayable",
      "type": "function"
    },
    {
      "inputs": [
        {
          "internalType": "address",
          "name": "",
          "type": "address"
        }
      ],
      "name": "deposited",
      "outputs": [
        {
          "internalType": "uint256",
          "name": "",
          "type": "uint256"
        }
      ],
      "stateMutability": "view",
      "type": "function"
    },
    {
      "inputs": [
        {
          "internalType": "address",
          "name": "user",
          "type": "address"
        },
        {
          "internalType": "uint256",
          "name": "amount",
          "type": "uint256"
        },
        {
          "internalType": "uint256",
          "name": "deadline",
          "type": "uint256"
        },
        {
          "internalType": "uint8",
          "name": "v",
          "type": "uint8"
        },
        {
          "internalType": "bytes32",
          "name": "r",
          "type": "bytes32"
        },
        {
          "internalType": "bytes32",
          "name": "s",
          "type": "bytes32"
        }
      ],
      "name": "permitDeposit",
      "outputs": [],
      "stateMutability": "nonpayable",
      "type": "function"
    },
    {
      "inputs": [],
      "name": "token",
      "outputs": [
        {
          "internalType": "address",
          "name": "",
          "type": "address"
        }
      ],
      "stateMutability": "view",
      "type": "function"
    }
  ],
  "bytecode": "0x60a060405234801561001057600080fd5b506040516108c63803806108c683398181016040528101906100329190610084565b8073ffffffffffffffffffffffffffffffffffffffff1660808173ffffffffffffffffffffffffffffffffffffffff1660601b81525050506100f6565b60008151905061007e816100df565b92915050565b60006020828403121561009657600080fd5b60006100a48482850161006f565b91505092915050565b60006100b8826100bf565b9050919050565b600073ffffffffffffffffffffffffffffffffffffffff82169050919050565b6100e8816100ad565b81146100f357600080fd5b50565b60805160601c6107a56101216000396000818160d90152818161022001526102e101526107a56000f3fe608060405234801561001057600080fd5b506004361061004c5760003560e01c806347e7ef24146100515780638f7b1bca1461006d578063cb13cddb14610089578063fc0c546a146100b9575b600080fd5b61006b60048036038101906100669190610395565b6100d7565b005b610087600480360381019061008291906103d1565b61021e565b005b6100a3600480360381019061009e919061036c565b6102c7565b6040516100b091906105c3565b60405180910390f35b6100c16102df565b6040516100ce91906104e2565b60405180910390f35b7f000000000000000000000000000000000000000000000000000000000000000073ffffffffffffffffffffffffffffffffffffffff166323b872dd3330846040518463ffffffff1660e01b8152600401610134939291906104fd565b602060405180830381600087803b15801561014e57600080fd5b505af1158015610162573d6000803e3d6000fd5b505050506040513d601f19601f82011682018060405250810190610186919061045a565b6101c5576040517f08c379a00000000000000000000000000000000000000000000000000000000081526004016101bc906105a3565b60405180910390fd5b806000808473ffffffffffffffffffffffffffffffffffffffff1673ffffffffffffffffffffffffffffffffffffffff168152602001908152602001600020600082825461021391906105ef565b925050819055505050565b7f000000000000000000000000000000000000000000000000000000000000000073ffffffffffffffffffffffffffffffffffffffff1663d505accf333088888888886040518863ffffffff1660e01b81526004016102839796959493929190610534565b600060405180830381600087803b15801561029d57600080fd5b505af11580156102b1573d6000803e3d6000fd5b505050506102bf86866100d7565b505050505050565b60006020528060005260406000206000915090505481565b7f000000000000000000000000000000000000000000000000000000000000000081565b600081359050610312816106fc565b92915050565b60008151905061032781610713565b92915050565b60008135905061033c8161072a565b92915050565b60008135905061035181610741565b92915050565b60008135905061036681610758565b92915050565b60006020828403121561037e57600080fd5b600061038c84828501610303565b91505092915050565b600080604083850312156103a857600080fd5b60006103b685828601610303565b92505060206103c785828601610342565b9150509250929050565b60008060008060008060c087890312156103ea57600080fd5b60006103f889828a01610303565b965050602061040989828a01610342565b955050604061041a89828a01610342565b945050606061042b89828a01610357565b935050608061043c89828a0161032d565b92505060a061044d89828a0161032d565b9150509295509295509295565b60006020828403121561046c57600080fd5b600061047a84828501610318565b91505092915050565b61048c81610645565b82525050565b61049b81610663565b82525050565b60006104ae6013836105de565b91506104b9826106d3565b602082019050919050565b6104cd8161068d565b82525050565b6104dc81610697565b82525050565b60006020820190506104f76000830184610483565b92915050565b60006060820190506105126000830186610483565b61051f6020830185610483565b61052c60408301846104c4565b949350505050565b600060e082019050610549600083018a610483565b6105566020830189610483565b61056360408301886104c4565b61057060608301876104c4565b61057d60808301866104d3565b61058a60a0830185610492565b61059760c0830184610492565b98975050505050505050565b600060208201905081810360008301526105bc816104a1565b9050919050565b60006020820190506105d860008301846104c4565b92915050565b600082825260208201905092915050565b60006105fa8261068d565b91506106058361068d565b9250827fffffffffffffffffffffffffffffffffffffffffffffffffffffffffffffffff0382111561063a576106396106a4565b5b828201905092915050565b60006106508261066d565b9050919050565b60008115159050919050565b6000819050919050565b600073ffffffffffffffffffffffffffffffffffffffff82169050919050565b6000819050919050565b600060ff82169050919050565b7f4e487b7100000000000000000000000000000000000000000000000000000000600052601160045260246000fd5b7f5472616e736665722066726f6d206572726f7200000000000000000000000000600082015250565b61070581610645565b811461071057600080fd5b50565b61071c81610657565b811461072757600080fd5b50565b61073381610663565b811461073e57600080fd5b50565b61074a8161068d565b811461075557600080fd5b50565b61076181610697565b811461076c57600080fd5b5056fea2646970667358221220cd4ae5cab747688c4cb07b8e2f7e0c2d51f0844b956c5dd2c5eb5c6ea9b4284064736f6c63430008040033",
  "linkReferences": {},
  "deployedLinkReferences": {}
}