{
  "_format": "hh-sol-artifact-1",
  "contractName": "UpERC20",
  "sourceName": "contracts/UpERC20.sol",
  "abi": [
    {
      "anonymous": false,
      "inputs": [
        {
          "indexed": true,
          "internalType": "address",
          "name": "owner",
          "type": "address"
        },
        {
          "indexed": true,
          "internalType": "address",
          "name": "spender",
          "type": "address"
        },
        {
          "indexed": false,
          "internalType": "uint256",
          "name": "value",
          "type": "uint256"
        }
      ],
      "name": "Approval",
      "type": "event"
    },
    {
      "anonymous": false,
      "inputs": [
        {
          "indexed": true,
          "internalType": "address",
          "name": "previousOwner",
          "type": "address"
        },
        {
          "indexed": true,
          "internalType": "address",
          "name": "newOwner",
          "type": "address"
        }
      ],
      "name": "OwnershipTransferred",
      "type": "event"
    },
    {
      "anonymous": false,
      "inputs": [
        {
          "indexed": true,
          "internalType": "address",
          "name": "from",
          "type": "address"
        },
        {
          "indexed": true,
          "internalType": "address",
          "name": "to",
          "type": "address"
        },
        {
          "indexed": false,
          "internalType": "uint256",
          "name": "value",
          "type": "uint256"
        }
      ],
      "name": "Transfer",
      "type": "event"
    },
    {
      "inputs": [
        {
          "internalType": "address",
          "name": "owner",
          "type": "address"
        },
        {
          "internalType": "address",
          "name": "spender",
          "type": "address"
        }
      ],
      "name": "allowance",
      "outputs": [
        {
          "internalType": "uint256",
          "name": "",
          "type": "uint256"
        }
      ],
      "stateMutability": "view",
      "type": "function"
    },
    {
      "inputs": [
        {
          "internalType": "address",
          "name": "spender",
          "type": "address"
        },
        {
          "internalType": "uint256",
          "name": "amount",
          "type": "uint256"
        }
      ],
      "name": "approve",
      "outputs": [
        {
          "internalType": "bool",
          "name": "",
          "type": "bool"
        }
      ],
      "stateMutability": "nonpayable",
      "type": "function"
    },
    {
      "inputs": [
        {
          "internalType": "address",
          "name": "account",
          "type": "address"
        }
      ],
      "name": "balanceOf",
      "outputs": [
        {
          "internalType": "uint256",
          "name": "",
          "type": "uint256"
        }
      ],
      "stateMutability": "view",
      "type": "function"
    },
    {
      "inputs": [],
      "name": "decimals",
      "outputs": [
        {
          "internalType": "uint8",
          "name": "",
          "type": "uint8"
        }
      ],
      "stateMutability": "view",
      "type": "function"
    },
    {
      "inputs": [
        {
          "internalType": "address",
          "name": "spender",
          "type": "address"
        },
        {
          "internalType": "uint256",
          "name": "subtractedValue",
          "type": "uint256"
        }
      ],
      "name": "decreaseAllowance",
      "outputs": [
        {
          "internalType": "bool",
          "name": "",
          "type": "bool"
        }
      ],
      "stateMutability": "nonpayable",
      "type": "function"
    },
    {
      "inputs": [
        {
          "internalType": "address",
          "name": "spender",
          "type": "address"
        },
        {
          "internalType": "uint256",
          "name": "addedValue",
          "type": "uint256"
        }
      ],
      "name": "increaseAllowance",
      "outputs": [
        {
          "internalType": "bool",
          "name": "",
          "type": "bool"
        }
      ],
      "stateMutability": "nonpayable",
      "type": "function"
    },
    {
      "inputs": [],
      "name": "initialize",
      "outputs": [],
      "stateMutability": "nonpayable",
      "type": "function"
    },
    {
      "inputs": [],
      "name": "name",
      "outputs": [
        {
          "internalType": "string",
          "name": "",
          "type": "string"
        }
      ],
      "stateMutability": "view",
      "type": "function"
    },
    {
      "inputs": [],
      "name": "owner",
      "outputs": [
        {
          "internalType": "address",
          "name": "",
          "type": "address"
        }
      ],
      "stateMutability": "view",
      "type": "function"
    },
    {
      "inputs": [],
      "name": "renounceOwnership",
      "outputs": [],
      "stateMutability": "nonpayable",
      "type": "function"
    },
    {
      "inputs": [],
      "name": "symbol",
      "outputs": [
        {
          "internalType": "string",
          "name": "",
          "type": "string"
        }
      ],
      "stateMutability": "view",
      "type": "function"
    },
    {
      "inputs": [],
      "name": "totalSupply",
      "outputs": [
        {
          "internalType": "uint256",
          "name": "",
          "type": "uint256"
        }
      ],
      "stateMutability": "view",
      "type": "function"
    },
    {
      "inputs": [
        {
          "internalType": "address",
          "name": "to",
          "type": "address"
        },
        {
          "internalType": "uint256",
          "name": "amount",
          "type": "uint256"
        }
      ],
      "name": "transfer",
      "outputs": [
        {
          "internalType": "bool",
          "name": "",
          "type": "bool"
        }
      ],
      "stateMutability": "nonpayable",
      "type": "function"
    },
    {
      "inputs": [
        {
          "internalType": "address",
          "name": "from",
          "type": "address"
        },
        {
          "internalType": "address",
          "name": "to",
          "type": "address"
        },
        {
          "internalType": "uint256",
          "name": "amount",
          "type": "uint256"
        }
      ],
      "name": "transferFrom",
      "outputs": [
        {
          "internalType": "bool",
          "name": "",
          "type": "bool"
        }
      ],
      "stateMutability": "nonpayable",
      "type": "function"
    },
    {
      "inputs": [
        {
          "internalType": "address",
          "name": "newOwner",
          "type": "address"
        }
      ],
      "name": "transferOwnership",
      "outputs": [],
      "stateMutability": "nonpayable",
      "type": "function"
    }
  ],
  "bytecode": "0x608060405234801561001057600080fd5b50611de6806100206000396000f3fe608060405234801561001057600080fd5b50600436106100f55760003560e01c8063715018a611610097578063a457c2d711610066578063a457c2d714610264578063a9059cbb14610294578063dd62ed3e146102c4578063f2fde38b146102f4576100f5565b8063715018a6146102145780638129fc1c1461021e5780638da5cb5b1461022857806395d89b4114610246576100f5565b806323b872dd116100d357806323b872dd14610166578063313ce5671461019657806339509351146101b457806370a08231146101e4576100f5565b806306fdde03146100fa578063095ea7b31461011857806318160ddd14610148575b600080fd5b610102610310565b60405161010f91906116cd565b60405180910390f35b610132600480360381019061012d9190611442565b6103a2565b60405161013f91906116b2565b60405180910390f35b6101506103c5565b60405161015d919061186f565b60405180910390f35b610180600480360381019061017b91906113f3565b6103cf565b60405161018d91906116b2565b60405180910390f35b61019e6103fe565b6040516101ab919061188a565b60405180910390f35b6101ce60048036038101906101c99190611442565b610407565b6040516101db91906116b2565b60405180910390f35b6101fe60048036038101906101f9919061138e565b6104b1565b60405161020b919061186f565b60405180910390f35b61021c6104fa565b005b610226610582565b005b6102306106fe565b60405161023d9190611697565b60405180910390f35b61024e610728565b60405161025b91906116cd565b60405180910390f35b61027e60048036038101906102799190611442565b6107ba565b60405161028b91906116b2565b60405180910390f35b6102ae60048036038101906102a99190611442565b6108a4565b6040516102bb91906116b2565b60405180910390f35b6102de60048036038101906102d991906113b7565b6108c7565b6040516102eb919061186f565b60405180910390f35b61030e6004803603810190610309919061138e565b61094e565b005b60606068805461031f9061199f565b80601f016020809104026020016040519081016040528092919081815260200182805461034b9061199f565b80156103985780601f1061036d57610100808354040283529160200191610398565b820191906000526020600020905b81548152906001019060200180831161037b57829003601f168201915b5050505050905090565b6000806103ad610a46565b90506103ba818585610a4e565b600191505092915050565b6000606754905090565b6000806103da610a46565b90506103e7858285610c19565b6103f2858585610ca5565b60019150509392505050565b60006012905090565b600080610412610a46565b90506104a6818585606660008673ffffffffffffffffffffffffffffffffffffffff1673ffffffffffffffffffffffffffffffffffffffff16815260200190815260200160002060008973ffffffffffffffffffffffffffffffffffffffff1673ffffffffffffffffffffffffffffffffffffffff168152602001908152602001600020546104a191906118c1565b610a4e565b600191505092915050565b6000606560008373ffffffffffffffffffffffffffffffffffffffff1673ffffffffffffffffffffffffffffffffffffffff168152602001908152602001600020549050919050565b610502610a46565b73ffffffffffffffffffffffffffffffffffffffff166105206106fe565b73ffffffffffffffffffffffffffffffffffffffff1614610576576040517f08c379a000000000000000000000000000000000000000000000000000000000815260040161056d906117af565b60405180910390fd5b6105806000610f29565b565b600060019054906101000a900460ff166105aa5760008054906101000a900460ff16156105b3565b6105b2610fef565b5b6105f2576040517f08c379a00000000000000000000000000000000000000000000000000000000081526004016105e99061178f565b60405180910390fd5b60008060019054906101000a900460ff161590508015610642576001600060016101000a81548160ff02191690831515021790555060016000806101000a81548160ff0219169083151502179055505b61064a611000565b610652611051565b6106c66040518060400160405280600781526020017f55704552433230000000000000000000000000000000000000000000000000008152506040518060400160405280600781526020017f55704552433230000000000000000000000000000000000000000000000000008152506110b2565b6106da3369152d02c7e14af6800000611133565b80156106fb5760008060016101000a81548160ff0219169083151502179055505b50565b6000603360009054906101000a900473ffffffffffffffffffffffffffffffffffffffff16905090565b6060606980546107379061199f565b80601f01602080910402602001604051908101604052809291908181526020018280546107639061199f565b80156107b05780601f10610785576101008083540402835291602001916107b0565b820191906000526020600020905b81548152906001019060200180831161079357829003601f168201915b5050505050905090565b6000806107c5610a46565b90506000606660008373ffffffffffffffffffffffffffffffffffffffff1673ffffffffffffffffffffffffffffffffffffffff16815260200190815260200160002060008673ffffffffffffffffffffffffffffffffffffffff1673ffffffffffffffffffffffffffffffffffffffff1681526020019081526020016000205490508381101561088b576040517f08c379a00000000000000000000000000000000000000000000000000000000081526004016108829061182f565b60405180910390fd5b6108988286868403610a4e565b60019250505092915050565b6000806108af610a46565b90506108bc818585610ca5565b600191505092915050565b6000606660008473ffffffffffffffffffffffffffffffffffffffff1673ffffffffffffffffffffffffffffffffffffffff16815260200190815260200160002060008373ffffffffffffffffffffffffffffffffffffffff1673ffffffffffffffffffffffffffffffffffffffff16815260200190815260200160002054905092915050565b610956610a46565b73ffffffffffffffffffffffffffffffffffffffff166109746106fe565b73ffffffffffffffffffffffffffffffffffffffff16146109ca576040517f08c379a00000000000000000000000000000000000000000000000000000000081526004016109c1906117af565b60405180910390fd5b600073ffffffffffffffffffffffffffffffffffffffff168173ffffffffffffffffffffffffffffffffffffffff161415610a3a576040517f08c379a0000000000000000000000000000000000000000000000000000000008152600401610a319061170f565b60405180910390fd5b610a4381610f29565b50565b600033905090565b600073ffffffffffffffffffffffffffffffffffffffff168373ffffffffffffffffffffffffffffffffffffffff161415610abe576040517f08c379a0000000000000000000000000000000000000000000000000000000008152600401610ab5906117ef565b60405180910390fd5b600073ffffffffffffffffffffffffffffffffffffffff168273ffffffffffffffffffffffffffffffffffffffff161415610b2e576040517f08c379a0000000000000000000000000000000000000000000000000000000008152600401610b259061172f565b60405180910390fd5b80606660008573ffffffffffffffffffffffffffffffffffffffff1673ffffffffffffffffffffffffffffffffffffffff16815260200190815260200160002060008473ffffffffffffffffffffffffffffffffffffffff1673ffffffffffffffffffffffffffffffffffffffff168152602001908152602001600020819055508173ffffffffffffffffffffffffffffffffffffffff168373ffffffffffffffffffffffffffffffffffffffff167f8c5be1e5ebec7d5bd14f71427d1e84f3dd0314c0f7b2291e5b200ac8c7c3b92583604051610c0c919061186f565b60405180910390a3505050565b6000610c2584846108c7565b90507fffffffffffffffffffffffffffffffffffffffffffffffffffffffffffffffff8114610c9f5781811015610c91576040517f08c379a0000000000000000000000000000000000000000000000000000000008152600401610c889061174f565b60405180910390fd5b610c9e8484848403610a4e565b5b50505050565b600073ffffffffffffffffffffffffffffffffffffffff168373ffffffffffffffffffffffffffffffffffffffff161415610d15576040517f08c379a0000000000000000000000000000000000000000000000000000000008152600401610d0c906117cf565b60405180910390fd5b600073ffffffffffffffffffffffffffffffffffffffff168273ffffffffffffffffffffffffffffffffffffffff161415610d85576040517f08c379a0000000000000000000000000000000000000000000000000000000008152600401610d7c906116ef565b60405180910390fd5b610d90838383611294565b6000606560008573ffffffffffffffffffffffffffffffffffffffff1673ffffffffffffffffffffffffffffffffffffffff16815260200190815260200160002054905081811015610e17576040517f08c379a0000000000000000000000000000000000000000000000000000000008152600401610e0e9061176f565b60405180910390fd5b818103606560008673ffffffffffffffffffffffffffffffffffffffff1673ffffffffffffffffffffffffffffffffffffffff1681526020019081526020016000208190555081606560008573ffffffffffffffffffffffffffffffffffffffff1673ffffffffffffffffffffffffffffffffffffffff1681526020019081526020016000206000828254610eac91906118c1565b925050819055508273ffffffffffffffffffffffffffffffffffffffff168473ffffffffffffffffffffffffffffffffffffffff167fddf252ad1be2c89b69c2b068fc378daa952ba7f163c4a11628f55a4df523b3ef84604051610f10919061186f565b60405180910390a3610f23848484611299565b50505050565b6000603360009054906101000a900473ffffffffffffffffffffffffffffffffffffffff16905081603360006101000a81548173ffffffffffffffffffffffffffffffffffffffff021916908373ffffffffffffffffffffffffffffffffffffffff1602179055508173ffffffffffffffffffffffffffffffffffffffff168173ffffffffffffffffffffffffffffffffffffffff167f8be0079c531659141344cd1fd0a4f28419497f9722a3daafe3b4186f6b6457e060405160405180910390a35050565b6000610ffa3061129e565b15905090565b600060019054906101000a900460ff1661104f576040517f08c379a00000000000000000000000000000000000000000000000000000000081526004016110469061180f565b60405180910390fd5b565b600060019054906101000a900460ff166110a0576040517f08c379a00000000000000000000000000000000000000000000000000000000081526004016110979061180f565b60405180910390fd5b6110b06110ab610a46565b610f29565b565b600060019054906101000a900460ff16611101576040517f08c379a00000000000000000000000000000000000000000000000000000000081526004016110f89061180f565b60405180910390fd5b81606890805190602001906111179291906112c1565b50806069908051906020019061112e9291906112c1565b505050565b600073ffffffffffffffffffffffffffffffffffffffff168273ffffffffffffffffffffffffffffffffffffffff1614156111a3576040517f08c379a000000000000000000000000000000000000000000000000000000000815260040161119a9061184f565b60405180910390fd5b6111af60008383611294565b80606760008282546111c191906118c1565b9250508190555080606560008473ffffffffffffffffffffffffffffffffffffffff1673ffffffffffffffffffffffffffffffffffffffff168152602001908152602001600020600082825461121791906118c1565b925050819055508173ffffffffffffffffffffffffffffffffffffffff16600073ffffffffffffffffffffffffffffffffffffffff167fddf252ad1be2c89b69c2b068fc378daa952ba7f163c4a11628f55a4df523b3ef8360405161127c919061186f565b60405180910390a361129060008383611299565b5050565b505050565b505050565b6000808273ffffffffffffffffffffffffffffffffffffffff163b119050919050565b8280546112cd9061199f565b90600052602060002090601f0160209004810192826112ef5760008555611336565b82601f1061130857805160ff1916838001178555611336565b82800160010185558215611336579182015b8281111561133557825182559160200191906001019061131a565b5b5090506113439190611347565b5090565b5b80821115611360576000816000905550600101611348565b5090565b60008135905061137381611d82565b92915050565b60008135905061138881611d99565b92915050565b6000602082840312156113a057600080fd5b60006113ae84828501611364565b91505092915050565b600080604083850312156113ca57600080fd5b60006113d885828601611364565b92505060206113e985828601611364565b9150509250929050565b60008060006060848603121561140857600080fd5b600061141686828701611364565b935050602061142786828701611364565b925050604061143886828701611379565b9150509250925092565b6000806040838503121561145557600080fd5b600061146385828601611364565b925050602061147485828601611379565b9150509250929050565b61148781611917565b82525050565b61149681611929565b82525050565b60006114a7826118a5565b6114b181856118b0565b93506114c181856020860161196c565b6114ca81611a2f565b840191505092915050565b60006114e26023836118b0565b91506114ed82611a40565b604082019050919050565b60006115056026836118b0565b915061151082611a8f565b604082019050919050565b60006115286022836118b0565b915061153382611ade565b604082019050919050565b600061154b601d836118b0565b915061155682611b2d565b602082019050919050565b600061156e6026836118b0565b915061157982611b56565b604082019050919050565b6000611591602e836118b0565b915061159c82611ba5565b604082019050919050565b60006115b46020836118b0565b91506115bf82611bf4565b602082019050919050565b60006115d76025836118b0565b91506115e282611c1d565b604082019050919050565b60006115fa6024836118b0565b915061160582611c6c565b604082019050919050565b600061161d602b836118b0565b915061162882611cbb565b604082019050919050565b60006116406025836118b0565b915061164b82611d0a565b604082019050919050565b6000611663601f836118b0565b915061166e82611d59565b602082019050919050565b61168281611955565b82525050565b6116918161195f565b82525050565b60006020820190506116ac600083018461147e565b92915050565b60006020820190506116c7600083018461148d565b92915050565b600060208201905081810360008301526116e7818461149c565b905092915050565b60006020820190508181036000830152611708816114d5565b9050919050565b60006020820190508181036000830152611728816114f8565b9050919050565b600060208201905081810360008301526117488161151b565b9050919050565b600060208201905081810360008301526117688161153e565b9050919050565b6000602082019050818103600083015261178881611561565b9050919050565b600060208201905081810360008301526117a881611584565b9050919050565b600060208201905081810360008301526117c8816115a7565b9050919050565b600060208201905081810360008301526117e8816115ca565b9050919050565b60006020820190508181036000830152611808816115ed565b9050919050565b6000602082019050818103600083015261182881611610565b9050919050565b6000602082019050818103600083015261184881611633565b9050919050565b6000602082019050818103600083015261186881611656565b9050919050565b60006020820190506118846000830184611679565b92915050565b600060208201905061189f6000830184611688565b92915050565b600081519050919050565b600082825260208201905092915050565b60006118cc82611955565b91506118d783611955565b9250827fffffffffffffffffffffffffffffffffffffffffffffffffffffffffffffffff0382111561190c5761190b6119d1565b5b828201905092915050565b600061192282611935565b9050919050565b60008115159050919050565b600073ffffffffffffffffffffffffffffffffffffffff82169050919050565b6000819050919050565b600060ff82169050919050565b60005b8381101561198a57808201518184015260208101905061196f565b83811115611999576000848401525b50505050565b600060028204905060018216806119b757607f821691505b602082108114156119cb576119ca611a00565b5b50919050565b7f4e487b7100000000000000000000000000000000000000000000000000000000600052601160045260246000fd5b7f4e487b7100000000000000000000000000000000000000000000000000000000600052602260045260246000fd5b6000601f19601f8301169050919050565b7f45524332303a207472616e7366657220746f20746865207a65726f206164647260008201527f6573730000000000000000000000000000000000000000000000000000000000602082015250565b7f4f776e61626c653a206e6577206f776e657220697320746865207a65726f206160008201527f6464726573730000000000000000000000000000000000000000000000000000602082015250565b7f45524332303a20617070726f766520746f20746865207a65726f20616464726560008201527f7373000000000000000000000000000000000000000000000000000000000000602082015250565b7f45524332303a20696e73756666696369656e7420616c6c6f77616e6365000000600082015250565b7f45524332303a207472616e7366657220616d6f756e742065786365656473206260008201527f616c616e63650000000000000000000000000000000000000000000000000000602082015250565b7f496e697469616c697a61626c653a20636f6e747261637420697320616c72656160008201527f647920696e697469616c697a6564000000000000000000000000000000000000602082015250565b7f4f776e61626c653a2063616c6c6572206973206e6f7420746865206f776e6572600082015250565b7f45524332303a207472616e736665722066726f6d20746865207a65726f20616460008201527f6472657373000000000000000000000000000000000000000000000000000000602082015250565b7f45524332303a20617070726f76652066726f6d20746865207a65726f2061646460008201527f7265737300000000000000000000000000000000000000000000000000000000602082015250565b7f496e697469616c697a61626c653a20636f6e7472616374206973206e6f74206960008201527f6e697469616c697a696e67000000000000000000000000000000000000000000602082015250565b7f45524332303a2064656372656173656420616c6c6f77616e63652062656c6f7760008201527f207a65726f000000000000000000000000000000000000000000000000000000602082015250565b7f45524332303a206d696e7420746f20746865207a65726f206164647265737300600082015250565b611d8b81611917565b8114611d9657600080fd5b50565b611da281611955565b8114611dad57600080fd5b5056fea2646970667358221220e8de8ec73ccf37be5db9bcc384f776743a13dfcf8ebd45bf960d15ae4592d8be64736f6c63430008040033",
  "linkReferences": {},
  "deployedLinkReferences": {}
}