{
  "_format": "hh-sol-artifact-1",
  "contractName": "MYERC721",
  "sourceName": "contracts/MyERC721.sol",
  "abi": [
    {
      "inputs": [],
      "stateMutability": "nonpayable",
      "type": "constructor"
    },
    {
      "anonymous": false,
      "inputs": [
        {
          "indexed": true,
          "internalType": "address",
          "name": "owner",
          "type": "address"
        },
        {
          "indexed": true,
          "internalType": "address",
          "name": "approved",
          "type": "address"
        },
        {
          "indexed": true,
          "internalType": "uint256",
          "name": "tokenId",
          "type": "uint256"
        }
      ],
      "name": "Approval",
      "type": "event"
    },
    {
      "anonymous": false,
      "inputs": [
        {
          "indexed": true,
          "internalType": "address",
          "name": "owner",
          "type": "address"
        },
        {
          "indexed": true,
          "internalType": "address",
          "name": "operator",
          "type": "address"
        },
        {
          "indexed": false,
          "internalType": "bool",
          "name": "approved",
          "type": "bool"
        }
      ],
      "name": "ApprovalForAll",
      "type": "event"
    },
    {
      "anonymous": false,
      "inputs": [
        {
          "indexed": true,
          "internalType": "address",
          "name": "previousOwner",
          "type": "address"
        },
        {
          "indexed": true,
          "internalType": "address",
          "name": "newOwner",
          "type": "address"
        }
      ],
      "name": "OwnershipTransferred",
      "type": "event"
    },
    {
      "anonymous": false,
      "inputs": [
        {
          "indexed": true,
          "internalType": "address",
          "name": "from",
          "type": "address"
        },
        {
          "indexed": true,
          "internalType": "address",
          "name": "to",
          "type": "address"
        },
        {
          "indexed": true,
          "internalType": "uint256",
          "name": "tokenId",
          "type": "uint256"
        }
      ],
      "name": "Transfer",
      "type": "event"
    },
    {
      "inputs": [
        {
          "internalType": "address",
          "name": "to",
          "type": "address"
        },
        {
          "internalType": "uint256",
          "name": "tokenId",
          "type": "uint256"
        }
      ],
      "name": "approve",
      "outputs": [],
      "stateMutability": "nonpayable",
      "type": "function"
    },
    {
      "inputs": [
        {
          "internalType": "address",
          "name": "owner",
          "type": "address"
        }
      ],
      "name": "balanceOf",
      "outputs": [
        {
          "internalType": "uint256",
          "name": "",
          "type": "uint256"
        }
      ],
      "stateMutability": "view",
      "type": "function"
    },
    {
      "inputs": [
        {
          "internalType": "uint256",
          "name": "tokenId",
          "type": "uint256"
        }
      ],
      "name": "getApproved",
      "outputs": [
        {
          "internalType": "address",
          "name": "",
          "type": "address"
        }
      ],
      "stateMutability": "view",
      "type": "function"
    },
    {
      "inputs": [
        {
          "internalType": "address",
          "name": "owner",
          "type": "address"
        },
        {
          "internalType": "address",
          "name": "operator",
          "type": "address"
        }
      ],
      "name": "isApprovedForAll",
      "outputs": [
        {
          "internalType": "bool",
          "name": "",
          "type": "bool"
        }
      ],
      "stateMutability": "view",
      "type": "function"
    },
    {
      "inputs": [
        {
          "internalType": "address",
          "name": "to",
          "type": "address"
        }
      ],
      "name": "myNFTMint",
      "outputs": [],
      "stateMutability": "nonpayable",
      "type": "function"
    },
    {
      "inputs": [],
      "name": "name",
      "outputs": [
        {
          "internalType": "string",
          "name": "",
          "type": "string"
        }
      ],
      "stateMutability": "view",
      "type": "function"
    },
    {
      "inputs": [],
      "name": "owner",
      "outputs": [
        {
          "internalType": "address",
          "name": "",
          "type": "address"
        }
      ],
      "stateMutability": "view",
      "type": "function"
    },
    {
      "inputs": [
        {
          "internalType": "uint256",
          "name": "tokenId",
          "type": "uint256"
        }
      ],
      "name": "ownerOf",
      "outputs": [
        {
          "internalType": "address",
          "name": "",
          "type": "address"
        }
      ],
      "stateMutability": "view",
      "type": "function"
    },
    {
      "inputs": [],
      "name": "renounceOwnership",
      "outputs": [],
      "stateMutability": "nonpayable",
      "type": "function"
    },
    {
      "inputs": [
        {
          "internalType": "address",
          "name": "from",
          "type": "address"
        },
        {
          "internalType": "address",
          "name": "to",
          "type": "address"
        },
        {
          "internalType": "uint256",
          "name": "tokenId",
          "type": "uint256"
        }
      ],
      "name": "safeTransferFrom",
      "outputs": [],
      "stateMutability": "nonpayable",
      "type": "function"
    },
    {
      "inputs": [
        {
          "internalType": "address",
          "name": "from",
          "type": "address"
        },
        {
          "internalType": "address",
          "name": "to",
          "type": "address"
        },
        {
          "internalType": "uint256",
          "name": "tokenId",
          "type": "uint256"
        },
        {
          "internalType": "bytes",
          "name": "_data",
          "type": "bytes"
        }
      ],
      "name": "safeTransferFrom",
      "outputs": [],
      "stateMutability": "nonpayable",
      "type": "function"
    },
    {
      "inputs": [
        {
          "internalType": "address",
          "name": "operator",
          "type": "address"
        },
        {
          "internalType": "bool",
          "name": "approved",
          "type": "bool"
        }
      ],
      "name": "setApprovalForAll",
      "outputs": [],
      "stateMutability": "nonpayable",
      "type": "function"
    },
    {
      "inputs": [
        {
          "internalType": "bytes4",
          "name": "interfaceId",
          "type": "bytes4"
        }
      ],
      "name": "supportsInterface",
      "outputs": [
        {
          "internalType": "bool",
          "name": "",
          "type": "bool"
        }
      ],
      "stateMutability": "view",
      "type": "function"
    },
    {
      "inputs": [],
      "name": "symbol",
      "outputs": [
        {
          "internalType": "string",
          "name": "",
          "type": "string"
        }
      ],
      "stateMutability": "view",
      "type": "function"
    },
    {
      "inputs": [
        {
          "internalType": "uint256",
          "name": "tokenId",
          "type": "uint256"
        }
      ],
      "name": "tokenURI",
      "outputs": [
        {
          "internalType": "string",
          "name": "",
          "type": "string"
        }
      ],
      "stateMutability": "view",
      "type": "function"
    },
    {
      "inputs": [
        {
          "internalType": "address",
          "name": "from",
          "type": "address"
        },
        {
          "internalType": "address",
          "name": "to",
          "type": "address"
        },
        {
          "internalType": "uint256",
          "name": "tokenId",
          "type": "uint256"
        }
      ],
      "name": "transferFrom",
      "outputs": [],
      "stateMutability": "nonpayable",
      "type": "function"
    },
    {
      "inputs": [
        {
          "internalType": "address",
          "name": "newOwner",
          "type": "address"
        }
      ],
      "name": "transferOwnership",
      "outputs": [],
      "stateMutability": "nonpayable",
      "type": "function"
    }
  ],
  "bytecode": "0x60806040523480156200001157600080fd5b506040518060400160405280600581526020017f4d794e46540000000000000000000000000000000000000000000000000000008152506040518060400160405280600581526020017f4d794e4654000000000000000000000000000000000000000000000000000000815250816000908051906020019062000096929190620001a6565b508060019080519060200190620000af929190620001a6565b505050620000d2620000c6620000d860201b60201c565b620000e060201b60201c565b620002bb565b600033905090565b6000600660009054906101000a900473ffffffffffffffffffffffffffffffffffffffff16905081600660006101000a81548173ffffffffffffffffffffffffffffffffffffffff021916908373ffffffffffffffffffffffffffffffffffffffff1602179055508173ffffffffffffffffffffffffffffffffffffffff168173ffffffffffffffffffffffffffffffffffffffff167f8be0079c531659141344cd1fd0a4f28419497f9722a3daafe3b4186f6b6457e060405160405180910390a35050565b828054620001b49062000256565b90600052602060002090601f016020900481019282620001d8576000855562000224565b82601f10620001f357805160ff191683800117855562000224565b8280016001018555821562000224579182015b828111156200022357825182559160200191906001019062000206565b5b50905062000233919062000237565b5090565b5b808211156200025257600081600090555060010162000238565b5090565b600060028204905060018216806200026f57607f821691505b602082108114156200028657620002856200028c565b5b50919050565b7f4e487b7100000000000000000000000000000000000000000000000000000000600052602260045260246000fd5b612bc280620002cb6000396000f3fe608060405234801561001057600080fd5b506004361061010b5760003560e01c8063715018a6116100a2578063b88d4fde11610071578063b88d4fde146102a4578063c87b56dd146102c0578063e985e9c5146102f0578063f2768d1514610320578063f2fde38b1461033c5761010b565b8063715018a6146102425780638da5cb5b1461024c57806395d89b411461026a578063a22cb465146102885761010b565b806323b872dd116100de57806323b872dd146101aa57806342842e0e146101c65780636352211e146101e257806370a08231146102125761010b565b806301ffc9a71461011057806306fdde0314610140578063081812fc1461015e578063095ea7b31461018e575b600080fd5b61012a60048036038101906101259190611cc6565b610358565b60405161013791906120cc565b60405180910390f35b61014861043a565b60405161015591906120e7565b60405180910390f35b61017860048036038101906101739190611d18565b6104cc565b6040516101859190612065565b60405180910390f35b6101a860048036038101906101a39190611c8a565b610551565b005b6101c460048036038101906101bf9190611b84565b610669565b005b6101e060048036038101906101db9190611b84565b6106c9565b005b6101fc60048036038101906101f79190611d18565b6106e9565b6040516102099190612065565b60405180910390f35b61022c60048036038101906102279190611b1f565b61079b565b6040516102399190612309565b60405180910390f35b61024a610853565b005b6102546108db565b6040516102619190612065565b60405180910390f35b610272610905565b60405161027f91906120e7565b60405180910390f35b6102a2600480360381019061029d9190611c4e565b610997565b005b6102be60048036038101906102b99190611bd3565b6109ad565b005b6102da60048036038101906102d59190611d18565b610a0f565b6040516102e791906120e7565b60405180910390f35b61030a60048036038101906103059190611b48565b610ab6565b60405161031791906120cc565b60405180910390f35b61033a60048036038101906103359190611b1f565b610b4a565b005b61035660048036038101906103519190611b1f565b610bec565b005b60007f80ac58cd000000000000000000000000000000000000000000000000000000007bffffffffffffffffffffffffffffffffffffffffffffffffffffffff1916827bffffffffffffffffffffffffffffffffffffffffffffffffffffffff1916148061042357507f5b5e139f000000000000000000000000000000000000000000000000000000007bffffffffffffffffffffffffffffffffffffffffffffffffffffffff1916827bffffffffffffffffffffffffffffffffffffffffffffffffffffffff1916145b80610433575061043282610ce4565b5b9050919050565b6060600080546104499061252e565b80601f01602080910402602001604051908101604052809291908181526020018280546104759061252e565b80156104c25780601f10610497576101008083540402835291602001916104c2565b820191906000526020600020905b8154815290600101906020018083116104a557829003601f168201915b5050505050905090565b60006104d782610d4e565b610516576040517f08c379a000000000000000000000000000000000000000000000000000000000815260040161050d90612269565b60405180910390fd5b6004600083815260200190815260200160002060009054906101000a900473ffffffffffffffffffffffffffffffffffffffff169050919050565b600061055c826106e9565b90508073ffffffffffffffffffffffffffffffffffffffff168373ffffffffffffffffffffffffffffffffffffffff1614156105cd576040517f08c379a00000000000000000000000000000000000000000000000000000000081526004016105c4906122c9565b60405180910390fd5b8073ffffffffffffffffffffffffffffffffffffffff166105ec610dba565b73ffffffffffffffffffffffffffffffffffffffff16148061061b575061061a81610615610dba565b610ab6565b5b61065a576040517f08c379a0000000000000000000000000000000000000000000000000000000008152600401610651906121e9565b60405180910390fd5b6106648383610dc2565b505050565b61067a610674610dba565b82610e7b565b6106b9576040517f08c379a00000000000000000000000000000000000000000000000000000000081526004016106b0906122e9565b60405180910390fd5b6106c4838383610f59565b505050565b6106e4838383604051806020016040528060008152506109ad565b505050565b6000806002600084815260200190815260200160002060009054906101000a900473ffffffffffffffffffffffffffffffffffffffff169050600073ffffffffffffffffffffffffffffffffffffffff168173ffffffffffffffffffffffffffffffffffffffff161415610792576040517f08c379a000000000000000000000000000000000000000000000000000000000815260040161078990612229565b60405180910390fd5b80915050919050565b60008073ffffffffffffffffffffffffffffffffffffffff168273ffffffffffffffffffffffffffffffffffffffff16141561080c576040517f08c379a000000000000000000000000000000000000000000000000000000000815260040161080390612209565b60405180910390fd5b600360008373ffffffffffffffffffffffffffffffffffffffff1673ffffffffffffffffffffffffffffffffffffffff168152602001908152602001600020549050919050565b61085b610dba565b73ffffffffffffffffffffffffffffffffffffffff166108796108db565b73ffffffffffffffffffffffffffffffffffffffff16146108cf576040517f08c379a00000000000000000000000000000000000000000000000000000000081526004016108c690612289565b60405180910390fd5b6108d960006111c0565b565b6000600660009054906101000a900473ffffffffffffffffffffffffffffffffffffffff16905090565b6060600180546109149061252e565b80601f01602080910402602001604051908101604052809291908181526020018280546109409061252e565b801561098d5780601f106109625761010080835404028352916020019161098d565b820191906000526020600020905b81548152906001019060200180831161097057829003601f168201915b5050505050905090565b6109a96109a2610dba565b8383611286565b5050565b6109be6109b8610dba565b83610e7b565b6109fd576040517f08c379a00000000000000000000000000000000000000000000000000000000081526004016109f4906122e9565b60405180910390fd5b610a09848484846113f3565b50505050565b6060610a1a82610d4e565b610a59576040517f08c379a0000000000000000000000000000000000000000000000000000000008152600401610a50906122a9565b60405180910390fd5b6000610a6361144f565b90506000815111610a835760405180602001604052806000815250610aae565b80610a8d84611466565b604051602001610a9e929190612041565b6040516020818303038152906040525b915050919050565b6000600560008473ffffffffffffffffffffffffffffffffffffffff1673ffffffffffffffffffffffffffffffffffffffff16815260200190815260200160002060008373ffffffffffffffffffffffffffffffffffffffff1673ffffffffffffffffffffffffffffffffffffffff16815260200190815260200160002060009054906101000a900460ff16905092915050565b610b52610dba565b73ffffffffffffffffffffffffffffffffffffffff16610b706108db565b73ffffffffffffffffffffffffffffffffffffffff1614610bc6576040517f08c379a0000000000000000000000000000000000000000000000000000000008152600401610bbd90612289565b60405180910390fd5b6000610bd26007611613565b9050610bde6007611621565b610be88282611637565b5050565b610bf4610dba565b73ffffffffffffffffffffffffffffffffffffffff16610c126108db565b73ffffffffffffffffffffffffffffffffffffffff1614610c68576040517f08c379a0000000000000000000000000000000000000000000000000000000008152600401610c5f90612289565b60405180910390fd5b600073ffffffffffffffffffffffffffffffffffffffff168173ffffffffffffffffffffffffffffffffffffffff161415610cd8576040517f08c379a0000000000000000000000000000000000000000000000000000000008152600401610ccf90612129565b60405180910390fd5b610ce1816111c0565b50565b60007f01ffc9a7000000000000000000000000000000000000000000000000000000007bffffffffffffffffffffffffffffffffffffffffffffffffffffffff1916827bffffffffffffffffffffffffffffffffffffffffffffffffffffffff1916149050919050565b60008073ffffffffffffffffffffffffffffffffffffffff166002600084815260200190815260200160002060009054906101000a900473ffffffffffffffffffffffffffffffffffffffff1673ffffffffffffffffffffffffffffffffffffffff1614159050919050565b600033905090565b816004600083815260200190815260200160002060006101000a81548173ffffffffffffffffffffffffffffffffffffffff021916908373ffffffffffffffffffffffffffffffffffffffff160217905550808273ffffffffffffffffffffffffffffffffffffffff16610e35836106e9565b73ffffffffffffffffffffffffffffffffffffffff167f8c5be1e5ebec7d5bd14f71427d1e84f3dd0314c0f7b2291e5b200ac8c7c3b92560405160405180910390a45050565b6000610e8682610d4e565b610ec5576040517f08c379a0000000000000000000000000000000000000000000000000000000008152600401610ebc906121c9565b60405180910390fd5b6000610ed0836106e9565b90508073ffffffffffffffffffffffffffffffffffffffff168473ffffffffffffffffffffffffffffffffffffffff161480610f3f57508373ffffffffffffffffffffffffffffffffffffffff16610f27846104cc565b73ffffffffffffffffffffffffffffffffffffffff16145b80610f505750610f4f8185610ab6565b5b91505092915050565b8273ffffffffffffffffffffffffffffffffffffffff16610f79826106e9565b73ffffffffffffffffffffffffffffffffffffffff1614610fcf576040517f08c379a0000000000000000000000000000000000000000000000000000000008152600401610fc690612149565b60405180910390fd5b600073ffffffffffffffffffffffffffffffffffffffff168273ffffffffffffffffffffffffffffffffffffffff16141561103f576040517f08c379a000000000000000000000000000000000000000000000000000000000815260040161103690612189565b60405180910390fd5b61104a838383611655565b611055600082610dc2565b6001600360008573ffffffffffffffffffffffffffffffffffffffff1673ffffffffffffffffffffffffffffffffffffffff16815260200190815260200160002060008282546110a59190612444565b925050819055506001600360008473ffffffffffffffffffffffffffffffffffffffff1673ffffffffffffffffffffffffffffffffffffffff16815260200190815260200160002060008282546110fc91906123bd565b92505081905550816002600083815260200190815260200160002060006101000a81548173ffffffffffffffffffffffffffffffffffffffff021916908373ffffffffffffffffffffffffffffffffffffffff160217905550808273ffffffffffffffffffffffffffffffffffffffff168473ffffffffffffffffffffffffffffffffffffffff167fddf252ad1be2c89b69c2b068fc378daa952ba7f163c4a11628f55a4df523b3ef60405160405180910390a46111bb83838361165a565b505050565b6000600660009054906101000a900473ffffffffffffffffffffffffffffffffffffffff16905081600660006101000a81548173ffffffffffffffffffffffffffffffffffffffff021916908373ffffffffffffffffffffffffffffffffffffffff1602179055508173ffffffffffffffffffffffffffffffffffffffff168173ffffffffffffffffffffffffffffffffffffffff167f8be0079c531659141344cd1fd0a4f28419497f9722a3daafe3b4186f6b6457e060405160405180910390a35050565b8173ffffffffffffffffffffffffffffffffffffffff168373ffffffffffffffffffffffffffffffffffffffff1614156112f5576040517f08c379a00000000000000000000000000000000000000000000000000000000081526004016112ec906121a9565b60405180910390fd5b80600560008573ffffffffffffffffffffffffffffffffffffffff1673ffffffffffffffffffffffffffffffffffffffff16815260200190815260200160002060008473ffffffffffffffffffffffffffffffffffffffff1673ffffffffffffffffffffffffffffffffffffffff16815260200190815260200160002060006101000a81548160ff0219169083151502179055508173ffffffffffffffffffffffffffffffffffffffff168373ffffffffffffffffffffffffffffffffffffffff167f17307eab39ab6107e8899845ad3d59bd9653f200f220920489ca2b5937696c31836040516113e691906120cc565b60405180910390a3505050565b6113fe848484610f59565b61140a8484848461165f565b611449576040517f08c379a000000000000000000000000000000000000000000000000000000000815260040161144090612109565b60405180910390fd5b50505050565b606060405180602001604052806000815250905090565b606060008214156114ae576040518060400160405280600181526020017f3000000000000000000000000000000000000000000000000000000000000000815250905061160e565b600082905060005b600082146114e05780806114c990612591565b915050600a826114d99190612413565b91506114b6565b60008167ffffffffffffffff811115611522577f4e487b7100000000000000000000000000000000000000000000000000000000600052604160045260246000fd5b6040519080825280601f01601f1916602001820160405280156115545781602001600182028036833780820191505090505b5090505b600085146116075760018261156d9190612444565b9150600a8561157c91906125da565b603061158891906123bd565b60f81b8183815181106115c4577f4e487b7100000000000000000000000000000000000000000000000000000000600052603260045260246000fd5b60200101907effffffffffffffffffffffffffffffffffffffffffffffffffffffffffffff1916908160001a905350600a856116009190612413565b9450611558565b8093505050505b919050565b600081600001549050919050565b6001816000016000828254019250508190555050565b6116518282604051806020016040528060008152506117f6565b5050565b505050565b505050565b60006116808473ffffffffffffffffffffffffffffffffffffffff16611851565b156117e9578373ffffffffffffffffffffffffffffffffffffffff1663150b7a026116a9610dba565b8786866040518563ffffffff1660e01b81526004016116cb9493929190612080565b602060405180830381600087803b1580156116e557600080fd5b505af192505050801561171657506040513d601f19601f820116820180604052508101906117139190611cef565b60015b611799573d8060008114611746576040519150601f19603f3d011682016040523d82523d6000602084013e61174b565b606091505b50600081511415611791576040517f08c379a000000000000000000000000000000000000000000000000000000000815260040161178890612109565b60405180910390fd5b805181602001fd5b63150b7a0260e01b7bffffffffffffffffffffffffffffffffffffffffffffffffffffffff1916817bffffffffffffffffffffffffffffffffffffffffffffffffffffffff1916149150506117ee565b600190505b949350505050565b6118008383611874565b61180d600084848461165f565b61184c576040517f08c379a000000000000000000000000000000000000000000000000000000000815260040161184390612109565b60405180910390fd5b505050565b6000808273ffffffffffffffffffffffffffffffffffffffff163b119050919050565b600073ffffffffffffffffffffffffffffffffffffffff168273ffffffffffffffffffffffffffffffffffffffff1614156118e4576040517f08c379a00000000000000000000000000000000000000000000000000000000081526004016118db90612249565b60405180910390fd5b6118ed81610d4e565b1561192d576040517f08c379a000000000000000000000000000000000000000000000000000000000815260040161192490612169565b60405180910390fd5b61193960008383611655565b6001600360008473ffffffffffffffffffffffffffffffffffffffff1673ffffffffffffffffffffffffffffffffffffffff168152602001908152602001600020600082825461198991906123bd565b92505081905550816002600083815260200190815260200160002060006101000a81548173ffffffffffffffffffffffffffffffffffffffff021916908373ffffffffffffffffffffffffffffffffffffffff160217905550808273ffffffffffffffffffffffffffffffffffffffff16600073ffffffffffffffffffffffffffffffffffffffff167fddf252ad1be2c89b69c2b068fc378daa952ba7f163c4a11628f55a4df523b3ef60405160405180910390a4611a4a6000838361165a565b5050565b6000611a61611a5c84612349565b612324565b905082815260208101848484011115611a7957600080fd5b611a848482856124ec565b509392505050565b600081359050611a9b81612b30565b92915050565b600081359050611ab081612b47565b92915050565b600081359050611ac581612b5e565b92915050565b600081519050611ada81612b5e565b92915050565b600082601f830112611af157600080fd5b8135611b01848260208601611a4e565b91505092915050565b600081359050611b1981612b75565b92915050565b600060208284031215611b3157600080fd5b6000611b3f84828501611a8c565b91505092915050565b60008060408385031215611b5b57600080fd5b6000611b6985828601611a8c565b9250506020611b7a85828601611a8c565b9150509250929050565b600080600060608486031215611b9957600080fd5b6000611ba786828701611a8c565b9350506020611bb886828701611a8c565b9250506040611bc986828701611b0a565b9150509250925092565b60008060008060808587031215611be957600080fd5b6000611bf787828801611a8c565b9450506020611c0887828801611a8c565b9350506040611c1987828801611b0a565b925050606085013567ffffffffffffffff811115611c3657600080fd5b611c4287828801611ae0565b91505092959194509250565b60008060408385031215611c6157600080fd5b6000611c6f85828601611a8c565b9250506020611c8085828601611aa1565b9150509250929050565b60008060408385031215611c9d57600080fd5b6000611cab85828601611a8c565b9250506020611cbc85828601611b0a565b9150509250929050565b600060208284031215611cd857600080fd5b6000611ce684828501611ab6565b91505092915050565b600060208284031215611d0157600080fd5b6000611d0f84828501611acb565b91505092915050565b600060208284031215611d2a57600080fd5b6000611d3884828501611b0a565b91505092915050565b611d4a81612478565b82525050565b611d598161248a565b82525050565b6000611d6a8261237a565b611d748185612390565b9350611d848185602086016124fb565b611d8d816126c7565b840191505092915050565b6000611da382612385565b611dad81856123a1565b9350611dbd8185602086016124fb565b611dc6816126c7565b840191505092915050565b6000611ddc82612385565b611de681856123b2565b9350611df68185602086016124fb565b80840191505092915050565b6000611e0f6032836123a1565b9150611e1a826126d8565b604082019050919050565b6000611e326026836123a1565b9150611e3d82612727565b604082019050919050565b6000611e556025836123a1565b9150611e6082612776565b604082019050919050565b6000611e78601c836123a1565b9150611e83826127c5565b602082019050919050565b6000611e9b6024836123a1565b9150611ea6826127ee565b604082019050919050565b6000611ebe6019836123a1565b9150611ec98261283d565b602082019050919050565b6000611ee1602c836123a1565b9150611eec82612866565b604082019050919050565b6000611f046038836123a1565b9150611f0f826128b5565b604082019050919050565b6000611f27602a836123a1565b9150611f3282612904565b604082019050919050565b6000611f4a6029836123a1565b9150611f5582612953565b604082019050919050565b6000611f6d6020836123a1565b9150611f78826129a2565b602082019050919050565b6000611f90602c836123a1565b9150611f9b826129cb565b604082019050919050565b6000611fb36020836123a1565b9150611fbe82612a1a565b602082019050919050565b6000611fd6602f836123a1565b9150611fe182612a43565b604082019050919050565b6000611ff96021836123a1565b915061200482612a92565b604082019050919050565b600061201c6031836123a1565b915061202782612ae1565b604082019050919050565b61203b816124e2565b82525050565b600061204d8285611dd1565b91506120598284611dd1565b91508190509392505050565b600060208201905061207a6000830184611d41565b92915050565b60006080820190506120956000830187611d41565b6120a26020830186611d41565b6120af6040830185612032565b81810360608301526120c18184611d5f565b905095945050505050565b60006020820190506120e16000830184611d50565b92915050565b600060208201905081810360008301526121018184611d98565b905092915050565b6000602082019050818103600083015261212281611e02565b9050919050565b6000602082019050818103600083015261214281611e25565b9050919050565b6000602082019050818103600083015261216281611e48565b9050919050565b6000602082019050818103600083015261218281611e6b565b9050919050565b600060208201905081810360008301526121a281611e8e565b9050919050565b600060208201905081810360008301526121c281611eb1565b9050919050565b600060208201905081810360008301526121e281611ed4565b9050919050565b6000602082019050818103600083015261220281611ef7565b9050919050565b6000602082019050818103600083015261222281611f1a565b9050919050565b6000602082019050818103600083015261224281611f3d565b9050919050565b6000602082019050818103600083015261226281611f60565b9050919050565b6000602082019050818103600083015261228281611f83565b9050919050565b600060208201905081810360008301526122a281611fa6565b9050919050565b600060208201905081810360008301526122c281611fc9565b9050919050565b600060208201905081810360008301526122e281611fec565b9050919050565b600060208201905081810360008301526123028161200f565b9050919050565b600060208201905061231e6000830184612032565b92915050565b600061232e61233f565b905061233a8282612560565b919050565b6000604051905090565b600067ffffffffffffffff82111561236457612363612698565b5b61236d826126c7565b9050602081019050919050565b600081519050919050565b600081519050919050565b600082825260208201905092915050565b600082825260208201905092915050565b600081905092915050565b60006123c8826124e2565b91506123d3836124e2565b9250827fffffffffffffffffffffffffffffffffffffffffffffffffffffffffffffffff038211156124085761240761260b565b5b828201905092915050565b600061241e826124e2565b9150612429836124e2565b9250826124395761243861263a565b5b828204905092915050565b600061244f826124e2565b915061245a836124e2565b92508282101561246d5761246c61260b565b5b828203905092915050565b6000612483826124c2565b9050919050565b60008115159050919050565b60007fffffffff0000000000000000000000000000000000000000000000000000000082169050919050565b600073ffffffffffffffffffffffffffffffffffffffff82169050919050565b6000819050919050565b82818337600083830152505050565b60005b838110156125195780820151818401526020810190506124fe565b83811115612528576000848401525b50505050565b6000600282049050600182168061254657607f821691505b6020821081141561255a57612559612669565b5b50919050565b612569826126c7565b810181811067ffffffffffffffff8211171561258857612587612698565b5b80604052505050565b600061259c826124e2565b91507fffffffffffffffffffffffffffffffffffffffffffffffffffffffffffffffff8214156125cf576125ce61260b565b5b600182019050919050565b60006125e5826124e2565b91506125f0836124e2565b925082612600576125ff61263a565b5b828206905092915050565b7f4e487b7100000000000000000000000000000000000000000000000000000000600052601160045260246000fd5b7f4e487b7100000000000000000000000000000000000000000000000000000000600052601260045260246000fd5b7f4e487b7100000000000000000000000000000000000000000000000000000000600052602260045260246000fd5b7f4e487b7100000000000000000000000000000000000000000000000000000000600052604160045260246000fd5b6000601f19601f8301169050919050565b7f4552433732313a207472616e7366657220746f206e6f6e20455243373231526560008201527f63656976657220696d706c656d656e7465720000000000000000000000000000602082015250565b7f4f776e61626c653a206e6577206f776e657220697320746865207a65726f206160008201527f6464726573730000000000000000000000000000000000000000000000000000602082015250565b7f4552433732313a207472616e736665722066726f6d20696e636f72726563742060008201527f6f776e6572000000000000000000000000000000000000000000000000000000602082015250565b7f4552433732313a20746f6b656e20616c7265616479206d696e74656400000000600082015250565b7f4552433732313a207472616e7366657220746f20746865207a65726f2061646460008201527f7265737300000000000000000000000000000000000000000000000000000000602082015250565b7f4552433732313a20617070726f766520746f2063616c6c657200000000000000600082015250565b7f4552433732313a206f70657261746f7220717565727920666f72206e6f6e657860008201527f697374656e7420746f6b656e0000000000000000000000000000000000000000602082015250565b7f4552433732313a20617070726f76652063616c6c6572206973206e6f74206f7760008201527f6e6572206e6f7220617070726f76656420666f7220616c6c0000000000000000602082015250565b7f4552433732313a2062616c616e636520717565727920666f7220746865207a6560008201527f726f206164647265737300000000000000000000000000000000000000000000602082015250565b7f4552433732313a206f776e657220717565727920666f72206e6f6e657869737460008201527f656e7420746f6b656e0000000000000000000000000000000000000000000000602082015250565b7f4552433732313a206d696e7420746f20746865207a65726f2061646472657373600082015250565b7f4552433732313a20617070726f76656420717565727920666f72206e6f6e657860008201527f697374656e7420746f6b656e0000000000000000000000000000000000000000602082015250565b7f4f776e61626c653a2063616c6c6572206973206e6f7420746865206f776e6572600082015250565b7f4552433732314d657461646174613a2055524920717565727920666f72206e6f60008201527f6e6578697374656e7420746f6b656e0000000000000000000000000000000000602082015250565b7f4552433732313a20617070726f76616c20746f2063757272656e74206f776e6560008201527f7200000000000000000000000000000000000000000000000000000000000000602082015250565b7f4552433732313a207472616e736665722063616c6c6572206973206e6f74206f60008201527f776e6572206e6f7220617070726f766564000000000000000000000000000000602082015250565b612b3981612478565b8114612b4457600080fd5b50565b612b508161248a565b8114612b5b57600080fd5b50565b612b6781612496565b8114612b7257600080fd5b50565b612b7e816124e2565b8114612b8957600080fd5b5056fea2646970667358221220b0e65652fe959ff8cf603ea0562311e5000dc6a07e6e827d1a4963b82676b3cc64736f6c63430008040033",
  "linkReferences": {},
  "deployedLinkReferences": {}
}